{
  "_format": "hh-sol-artifact-1",
  "contractName": "Wallet",
  "sourceName": "contracts/Wallet.sol",
  "abi": [
    {
      "anonymous": false,
      "inputs": [
        {
          "indexed": false,
          "internalType": "address",
          "name": "token",
          "type": "address"
        },
        {
          "indexed": false,
          "internalType": "uint256",
          "name": "id",
          "type": "uint256"
        }
      ],
      "name": "Add",
      "type": "event"
    },
    {
      "anonymous": false,
      "inputs": [
        {
          "indexed": false,
          "internalType": "address",
          "name": "token",
          "type": "address"
        },
        {
          "indexed": false,
          "internalType": "uint256",
          "name": "amount",
          "type": "uint256"
        }
      ],
      "name": "Deposit",
      "type": "event"
    },
    {
      "inputs": [],
      "name": "capital",
      "outputs": [
        {
          "internalType": "uint256",
          "name": "",
          "type": "uint256"
        }
      ],
      "stateMutability": "view",
      "type": "function"
    },
    {
      "inputs": [],
      "name": "getTokenList",
      "outputs": [
        {
          "components": [
            {
              "internalType": "address",
              "name": "tokenAddress",
              "type": "address"
            },
            {
              "internalType": "string",
              "name": "name",
              "type": "string"
            },
            {
              "internalType": "uint256",
              "name": "id",
              "type": "uint256"
            },
            {
              "internalType": "uint256",
              "name": "balance",
              "type": "uint256"
            }
          ],
          "internalType": "struct Token[]",
          "name": "",
          "type": "tuple[]"
        }
      ],
      "stateMutability": "view",
      "type": "function"
    },
    {
      "stateMutability": "payable",
      "type": "receive"
    }
  ],
  "bytecode": "0x608060405260008055600060015534801561001957600080fd5b50610864806100296000396000f3fe60806040526004361061002d5760003560e01c8063273cbaa014610050578063d211fd181461007b5761004b565b3661004b57346000808282546100439190610400565b925050819055005b600080fd5b34801561005c57600080fd5b506100656100a6565b6040516100729190610639565b60405180910390f35b34801561008757600080fd5b50610090610383565b60405161009d919061066a565b60405180910390f35b6060600560009054906101000a900473ffffffffffffffffffffffffffffffffffffffff1673ffffffffffffffffffffffffffffffffffffffff163373ffffffffffffffffffffffffffffffffffffffff1614610138576040517f08c379a000000000000000000000000000000000000000000000000000000000815260040161012f90610708565b60405180910390fd5b600060015467ffffffffffffffff81111561015657610155610728565b5b60405190808252806020026020018201604052801561018f57816020015b61017c610389565b8152602001906001900390816101745790505b5090506000805b60015481101561037a57600260008281526020019081526020016000206040518060800160405290816000820160009054906101000a900473ffffffffffffffffffffffffffffffffffffffff1673ffffffffffffffffffffffffffffffffffffffff1673ffffffffffffffffffffffffffffffffffffffff16815260200160018201805461022490610786565b80601f016020809104026020016040519081016040528092919081815260200182805461025090610786565b801561029d5780601f106102725761010080835404028352916020019161029d565b820191906000526020600020905b81548152906001019060200180831161028057829003601f168201915b50505050508152602001600282015481526020016003820154815250508383815181106102cd576102cc6107b7565b5b6020026020010181905250600360008484815181106102ef576102ee6107b7565b5b60200260200101516000015173ffffffffffffffffffffffffffffffffffffffff1673ffffffffffffffffffffffffffffffffffffffff16815260200190815260200160002054838381518110610349576103486107b7565b5b602002602001015160600181815250508180610364906107e6565b9250508080610372906107e6565b915050610196565b50819250505090565b60005481565b6040518060800160405280600073ffffffffffffffffffffffffffffffffffffffff1681526020016060815260200160008152602001600081525090565b6000819050919050565b7f4e487b7100000000000000000000000000000000000000000000000000000000600052601160045260246000fd5b600061040b826103c7565b9150610416836103c7565b925082820190508082111561042e5761042d6103d1565b5b92915050565b600081519050919050565b600082825260208201905092915050565b6000819050602082019050919050565b600073ffffffffffffffffffffffffffffffffffffffff82169050919050565b600061048b82610460565b9050919050565b61049b81610480565b82525050565b600081519050919050565b600082825260208201905092915050565b60005b838110156104db5780820151818401526020810190506104c0565b60008484015250505050565b6000601f19601f8301169050919050565b6000610503826104a1565b61050d81856104ac565b935061051d8185602086016104bd565b610526816104e7565b840191505092915050565b61053a816103c7565b82525050565b60006080830160008301516105586000860182610492565b506020830151848203602086015261057082826104f8565b91505060408301516105856040860182610531565b5060608301516105986060860182610531565b508091505092915050565b60006105af8383610540565b905092915050565b6000602082019050919050565b60006105cf82610434565b6105d9818561043f565b9350836020820285016105eb85610450565b8060005b85811015610627578484038952815161060885826105a3565b9450610613836105b7565b925060208a019950506001810190506105ef565b50829750879550505050505092915050565b6000602082019050818103600083015261065381846105c4565b905092915050565b610664816103c7565b82525050565b600060208201905061067f600083018461065b565b92915050565b600082825260208201905092915050565b7f4f6e6c79206f776e65722063616e2063616c6c20746869732066756e6374696f60008201527f6e00000000000000000000000000000000000000000000000000000000000000602082015250565b60006106f2602183610685565b91506106fd82610696565b604082019050919050565b60006020820190508181036000830152610721816106e5565b9050919050565b7f4e487b7100000000000000000000000000000000000000000000000000000000600052604160045260246000fd5b7f4e487b7100000000000000000000000000000000000000000000000000000000600052602260045260246000fd5b6000600282049050600182168061079e57607f821691505b6020821081036107b1576107b0610757565b5b50919050565b7f4e487b7100000000000000000000000000000000000000000000000000000000600052603260045260246000fd5b60006107f1826103c7565b91507fffffffffffffffffffffffffffffffffffffffffffffffffffffffffffffffff8203610823576108226103d1565b5b60018201905091905056fea2646970667358221220d6828e9c8ac8dd9cc67808702c800fd384f87be766a7a2a5ad7e7117b09e402664736f6c63430008110033",
  "linkReferences": {},
  "deployedLinkReferences": {}
}